{
  "contractName": "MDPToken",
  "abi": [
    {
      "constant": true,
      "inputs": [],
      "name": "totalSupply",
      "outputs": [
        {
          "name": "",
          "type": "uint256"
        }
      ],
      "payable": false,
      "stateMutability": "view",
      "type": "function"
    },
    {
      "inputs": [],
      "payable": false,
      "stateMutability": "nonpayable",
      "type": "constructor"
    }
  ],
  "bytecode": "0x608060405234801561001057600080fd5b50620f4240600081905550609e806100296000396000f300608060405260043610603f576000357c0100000000000000000000000000000000000000000000000000000000900463ffffffff16806318160ddd146044575b600080fd5b348015604f57600080fd5b506056606c565b6040518082815260200191505060405180910390f35b600054815600a165627a7a723058208bb3901ebb416303eb07e086d8c5c341beb811983ea204409197bfc28a3ef5c10029",
  "source": "pragma solidity ^0.4.22;\r\n\r\ncontract MDPToken {\r\n\t//constructor\r\n\t//set total number of token\r\n\t//read total number of tokens\r\n\tuint256 public totalSupply;\r\n\r\n\tfunction MDPToken () public {\r\n\t\ttotalSupply = 1000000;\r\n\t}\r\n}",
  "sourcePath": "D:/Blockchain Contracts/token_sale/contracts/MDPToken.sol",
  "compiler": {
    "name": "solc",
    "version": "0.4.22+commit.4cb486ee.Emscripten.clang"
  },
  "schemaVersion": "3.4.1",
  "updatedAt": "2021-06-10T12:17:01.711Z",
  "networkType": "ethereum",
  "devdoc": {
    "methods": {}
  },
  "userdoc": {
    "methods": {}
  }
}